:0B0474004D61747269784B65793A00A5
:1003870012043D7BFF7A0479747D017F011203AF6C
:100397001200038F33E53360F7FB7A00751D027D8A
:0803A700017F021203F080E85F
:0A040D00EF1FAC0670011E4C600FDB
:0D04170000751A02751BC7D51BFDD51AFA1A
:0304240080E7224C
:06046500C2A58F80D2A7A2
:08046B007F027EEFDEFEDFFCE4
:010473002266
:0A047F00C2A6120465C2A702046BB6
:1003D200CFCDCFCECCCE12015B7C007D0A12015B69
:0403E200ED2430FFD7
:0A03E600D2A6120465C2A702046B40
:10042700AE07BE0104ED148006BE0209ED243F4469
:0604370080FF12047F2289
:10043D007F3812047F7F0C12047F7F0612047F7FAA
:04044D000102047F25
:0A048900AC03120427AF040203E6DF
:0603AF008B198A1A891B5C
:1003B500120427E4FDAB19AA1AA91B8D82758300C7
:0C03C50012011CFF60061203E60D80E927
:0103D1002209
:0C0354007F0AEA24FFFDE434FFFC7E0079
:080360008E1E8F1F8C208D21E1
:100368007F017E00E4FBEBC39521E5206480F874EF
:0E0378008098500AAC1EAD1F1201490B80E8A0
:010386002254
:0403F0008A1B8B1CBD
:1003F400120427AA1DEAD39400400D120354AC1B27
:08040400AD1C1203D21A80EDB9
:01040C0022CD
:1002A900120427C3EA64809480400B7F2B1203E673
:1002B9008A278B28800E7F2D1203E6C3E49BF5283D
:1002C900E49AF527AA26EAD39400400D120354AC08
:0902D90027AD281203D21A80EDB2
:0102E20022F9
:0402E3008A2B8B2CAB
:1002E700120427AA2DEAD3940040297F101203563F
:1002F700AC2BAD2CCFCDCFCECCCE12015BEF540FB4
:10030700FEC3940AEE5004243080022437FF120300
:04031700E61A80D191
:01031B0022BF
:04031C008A308B3167
:10032000120427AA32EAD394004028EA24FFFDE40D
:1003300034FFFC7F027E00120360AC30AD31CFCDC4
:10034000CFCECCCE12015BEF54012430FF1203E676
:030350001A80D23E
:010353002287
:1004510011083F065B4F666D7D077F6F777C395EC4
:03046100797100AE
:10023C00EF14B40800505490025175F003A4C58318
:10024C0025F0C5837302026902026D02027102027B
:10025C0075020279020281020289020291D2A48003
:10026C000ED2A48012D2A48016D2A4801AC2A4D218
:10027C00A3D2A28016C2A4D2A3C2A2800EC2A4C2D0
:10028C00A3D2A28006C2A4C2A3C2A274082DF8E60F
:0D029C00F5807F017E0012040DE4F5802244
:10000300E4F5197590FFC29320970C7F14FE120438
:100013000D3097FD75190120960D7F147E00120493
:100023000D3096FD75190520950D7F147E00120481
:100033000D3095FD75190920940D7F147E0012046F
:100043000D3094FD75190D7590FFC29220970D7FA9
:10005300147E0012040D3097FD75190220960D7F52
:10006300147E0012040D3096FD75190620950D7F40
:10007300147E0012040D3095FD75190A20940D7F2E
:10008300147E0012040D3094FD75190E7590FFC295
:100093009120970D7F147E0012040D3097FD751982
:1000A3000320960D7F147E0012040D3096FD751902
:1000B3000720950D7F147E0012040D3095FD7519F0
:1000C3000B20940D7F147E0012040D3094FD7519DE
:1000D3000F7590FFC29020970D7F147E0012040DC0
:1000E3003097FD75190420960D7F147E0012040DC0
:1000F3003096FD75190820950D7F147E0012040DAE
:100103003095FD75190C20940D7F147E0012040D9B
:080113003094FD751910AF19BD
:01011B0022C1
:030000000201B04A
:0C01B000787FE4F6D8FD7581330201F77A
:10011C00BB010CE58229F582E5833AF583E0225098
:10012C0006E92582F8E622BBFE06E92582F8E222E2
:0D013C00E58229F582E5833AF583E49322FC
:10014900EF8DF0A4A8F0CF8CF0A428CE8DF0A42ECA
:02015900FE2284
:10015B00BC000BBE0029EF8DF084FFADF022E4CC88
:10016B00F875F008EF2FFFEE33FEEC33FCEE9DEC51
:10017B00984005FCEE9DFE0FD5F0E9E4CEFD22ED97
:10018B00F8F5F0EE8420D21CFEADF075F008EF2FE1
:10019B00FFED33FD4007985006D5F0F222C398FDD2
:0501AB000FD5F0EA226F
:1001BC00020387E493A3F8E493A34003F68001F2CF
:1001CC0008DFF48029E493A3F85407240CC8C33344
:1001DC00C4540F4420C8834004F456800146F6DF13
:1001EC00E4800B0102040810204080900451E47E4E
:1001FC00019360BCA3FF543F30E509541FFEE49308
:10020C00A360010ECF54C025E060A840B8E493A3CE
:10021C00FAE493A3F8E493A3C8C582C8CAC583CAF9
:10022C00F0A3C8C582C8CAC583CADFE9DEE780BEB1
:010464000097
:00000001FF
