:02005100AD07F9
:10005300E4FB7E007480A803088006CEA2E713CEDB
:1000630013D8F8FFEDF582EF558224FF92B4D2B690
:0A007300C2B60BBB08DCD2B5C2B563
:01007D002260
:10007E00AA07AF05120051AF02A8077480088002CC
:10008E00C313D8FCF4F5807F017E001200A07580AA
:02009E00FF223F
:10000300C2B6C2B57D3C7C00E4FF12007E7D427C1B
:10001300007F0112007E7DA97C007F0212007E7D9D
:10002300857C007F0312007E7D857C007F041200A7
:100033007E7DA97C007F0512007E7D427C007F06C9
:0E00430012007E7D3C7C007F0712007E80B69E
:0A00A000EF1FAC0670011E4C600F4C
:0D00AA00007508027509C7D509FDD508FAD3
:0300B70080E722BD
:030000000200BA41
:0C00BA00787FE4F6D8FD75810902000390
:00000001FF
