:10041E00456E7465722050617373776F72643A0023
:0B042E0054525545004552524F5200F9
:0704A000021904D20118004B
:10011C001204697BFF7A04791E7D017F011203C0F2
:10012C001200038F1DE51D60F7D3940A5029E518C2
:10013C00C394045020AE1BAF1C7C007D0A1201EF4F
:10014C008E1B8F1CE51D75F00A84E5F0251CF51C33
:10015C00E4351BF51B0518E51DB40B11AE1BAF1CCC
:10016C007C007D0A1202018E1B8F1C1518E51D6484
:10017C000C7026E51CB51A0DE51BB519087BFF7A2A
:10018C0004792E80067BFF7A0479337D077F021277
:10019C0003C0E4F51BF51CF518E51DB41007E4F5D8
:1001AC001BF51CF518750C04AB1CAA1B7D017F02FA
:0601BC0012040102012CF7
:0A043900EF1FAC0670011E4C600FAF
:0D04430000750902750AC7D50AFDD509FA32
:0304500080E72220
:06047D00C2A58F80D2A78A
:080483007F027EEFDEFEDFFCCC
:01048B00224E
:0A048C00C2A612047DC2A702048379
:1003E300CFCDCFCECCCE1202017C007D0A1202010A
:0403F300ED2430FFC6
:0A03F700D2A612047DC2A7020483FF
:10045300AE07BE0104ED148006BE0209ED243F443D
:0604630080FF12048C2250
:100469007F3812048C7F0C12048C7F0612048C7F57
:040479000102048CEC
:0A049600AC03120453AF040203F795
:0603C0008B088A09890A7E
:1003C600120453E4FDAB08AA09A90A8D82758300BD
:0C03D6001201C2FF60061203F70D80E95F
:0103E20022F8
:0C038D007F0AEA24FFFDE434FFFC7E0040
:080399008E0D8F0E8C0F8D10EC
:1003A1007F017E00E4FBEBC39510E50F6480F874D8
:0E03B1008098500AAC0DAD0E1201EF0B80E8E3
:0103BF00221B
:040401008A0A8B0BCD
:10040500120453AA0CEAD39400400D12038DAC0AD2
:08041500AD0B1203E31A80EDA8
:01041D0022BC
:1002E200120453C3EA64809480400B7F2B1203F7FD
:1002F2008A168B17800E7F2D1203F7C3E49BF51726
:10030200E49AF516AA15EAD39400400D12038DACB7
:0903120016AD171203E31A80ED89
:01031B0022BF
:04031C008A208B2187
:10032000120453AA22EAD3940040297F1012038FAB
:10033000AC20AD21CFCDCFCECCCE120201EF540FE9
:10034000FEC3940AEE5004243080022437FF1203C7
:04035000F71A80D147
:010354002286
:040355008A258B2644
:10035900120453AA27EAD394004028EA24FFFDE4B3
:1003690034FFFC7F027E00120399AC25AD26CFCD68
:10037900CFCECCCE120201EF54012430FF1203F785
:030389001A80D205
:01038C00224E
:10000300E4F5087590FFC29320970C7F14FE120449
:10001300393097FD75080120960D7F147E00120478
:10002300393096FD75080520950D7F147E00120466
:10003300393095FD75080920940D7F147E00120454
:10004300393094FD75080D7590FFC29220970D7F8E
:10005300147E001204393097FD75080220960D7F37
:10006300147E001204393096FD75080620950D7F25
:10007300147E001204393095FD75080A20940D7F13
:10008300147E001204393094FD75080E7590FFC27A
:100093009120970D7F147E001204393097FD750867
:1000A3000320960D7F147E001204393096FD7508E7
:1000B3000720950D7F147E001204393095FD7508D5
:1000C3000B20940D7F147E001204393094FD7508C3
:1000D3000F7590FFC29020970D7F147E0012043994
:1000E3003097FD75080420960D7F147E00120439A5
:1000F3003096FD75080820950D7F147E0012043993
:100103003095FD75080C20940D7F147E0012043980
:080113003094FD750810AF08DF
:01011B0022C1
:03000000020256A3
:0C025600787FE4F6D8FD75812702029D38
:1001C200BB010CE58229F582E5833AF583E02250F2
:1001D20006E92582F8E622BBFE06E92582F8E2223C
:0D01E200E58229F582E5833AF583E4932256
:1001EF00EF8DF0A4A8F0CF8CF0A428CE8DF0A42E24
:0201FF00FE22DE
:10020100BC000BBE0029EF8DF084FFADF022E4CCE1
:10021100F875F008EF2FFFEE33FEEC33FCEE9DECAA
:10022100984005FCEE9DFE0FD5F0E9E4CEFD22EDF0
:10023100F8F5F0EE8420D21CFEADF075F008EF2F3A
:10024100FFED33FD4007985006D5F0F222C398FD2B
:050251000FD5F0EA22C8
:1002620002011CE493A3F8E493A34003F68001F295
:1002720008DFF48029E493A3F85407240CC8C3339D
:10028200C4540F4420C8834004F456800146F6DF6C
:10029200E4800B01020408102040809004A0E47E58
:1002A200019360BCA3FF543F30E509541FFEE49361
:1002B200A360010ECF54C025E060A840B8E493A328
:1002C200FAE493A3F8E493A3C8C582C8CAC583CA53
:1002D200F0A3C8C582C8CAC583CADFE9DEE780BE0B
:0104A7000054
:00000001FF
