:03000000020003F8
:0C000300787FE4F6D8FD75811A02004AEF
:1001470011083F065B4F666D7D077F6F777C395ED1
:03015700797100BB
:0A012C00EF1FAC0670011E4C6010BE
:0E0136000000751902751A0FD51AFDD519FAB9
:0301440080E62230
:03008F000D7C00E5
:10009200EF14B4080050549000A775F003A4C58370
:1000A20025F0C583730200BF0200C30200C702002D
:1000B200CB0200CF0200D70200DF0200E7D2A48009
:1000C2000ED2A48012D2A48016D2A4801AC2A4D2C4
:1000D200A3D2A28016C2A4D2A3C2A2800EC2A4C27C
:1000E200A3D2A28006C2A4C2A3C2A274082DF8E6BB
:0D00F200F5807F017E0012012CE4F58022D4
:1000FF007D0A7C007F011200927F0212008F7F0326
:10010F0012008F0D7C007F041200920D7C007F0582
:0D011F001200920D7C007F0612009280D32A
:10000F000200FFE493A3F8E493A34003F68001F208
:10001F0008DFF48029E493A3F85407240CC8C333F2
:10002F00C4540F4420C8834004F456800146F6DFC1
:10003F00E4800B0102040810204080900147E47E09
:10004F00019360BCA3FF543F30E509541FFEE493B6
:10005F00A360010ECF54C025E060A840B8E493A37D
:10006F00FAE493A3F8E493A3C8C582C8CAC583CAA8
:10007F00F0A3C8C582C8CAC583CADFE9DEE780BE60
:01015A0000A4
:00000001FF
