:05001E0012000380FE4A
:03002300020026B2
:10002600C0E0C0F0C083C082C0D075D000C000C0A0
:1000360001C002C003C004C005C006C00730980C4A
:10004600E599F4F5A0AF99120093C298D007D006AF
:10005600D005D004D003D002D001D000D0D0D082B9
:07006600D083D0F0D0E0329E
:0A006D00EF1FAC0670011E4C600F7F
:0D007700007508027509C7D509FDD508FA06
:0300840080E722F0
:1000030043878075985053890F438920758BFA7500
:0B0013008DFAC2ABD28ED2ACD2AF226D
:080093008F993099FDC29922FA
:0300000002008774
:0C008700787FE4F6D8FD75810902001EA8
:00000001FF
