:10000300000E1B7F7F1B0E0000040C187F7F1B0E4E
:1000130000080C057F7F1E0CC00041221A7C7D1A4C
:10002300006061120A7E7F0800060E080B3E3E0B3D
:1000330000030B080B3E3E0B00060E08093F3E0B68
:10004300000E137E7E1F0E0008137E7E121D0C0011
:1000530009127E7F1013030009127E7F101C0C000F
:10006300000C157E7E170E000030380D7E7F1D08B4
:10007300C0C0301B7C7F0800000037F8FA34000052
:1000830000001B7C7C1A01000000091E7C7F180005
:1000930000001B7C7C1B00000000091E7C7F1800F5
:1000A30000001B7C7C1B00000810167C7F100800DE
:1000B3000010137C7E1800000008137C7F101000D2
:1000C300000812FCFD3A0000000812FCFC2210009C
:1000D300000061127C7F106000002011127C7E19E9
:1000E300000000310A7C7E0D00002011127C7E1975
:1000F300000000310A7C7E0D00002011127C7E1965
:10010300000000310A7C7E0D00002011127C7E1954
:08011300000000310A7C7E0DA2
:10011B001201DBE4F508E5082509FFE433FE74035F
:10012B002FF58274003EF583E493FD7C00AF08123B
:10013B0001930508E508C3940840DB050AE50AD3DB
:10014B00940A40CFE4F50A74082509F509D39418ED
:0B015B007480948140BDE4F50980B879
:0A01B500EF1FAC0670011E4C600F36
:0D01BF0000750B02750CC7D50CFDD50BFAB1
:0301CC0080E722A7
:02016600AD07E3
:10016800E4FB7E007480A803088006CEA2E713CEC5
:1001780013D8F8FFEDF582EF558224FF92B4D2B67A
:0A018800C2B60BBB08DCD2B5C2B54D
:01019200224A
:10019300AA07AF05120166AF02A8077480088002A0
:1001A300C313D8FCF4F5807F017E001201B575807E
:0201B300FF2229
:0501DB00C2B6C2B5220E
:030000000201CF2B
:0C01CF00787FE4F6D8FD75810C02011B5E
:00000001FF
