:0300DB00010A0017
:1000C0001200A9AF0A050A1200D37FE87E031200CE
:0300D0008F80F02E
:0A008F00EF1FAC0670011E4C600F5D
:0D009900007508027509C7D509FDD508FAE4
:0300A60080E722CE
:1000A90075984043878053890F438920758BFA756A
:0700B9008DFAC2ABD28E22CA
:0800D3008F993099FDC29922BA
:03000000020003F8
:0C000300787FE4F6D8FD75810A02004AFF
:10000F000200C0E493A3F8E493A34003F68001F247
:10001F0008DFF48029E493A3F85407240CC8C333F2
:10002F00C4540F4420C8834004F456800146F6DFC1
:10003F00E4800B01020408102040809000DBE47E76
:10004F00019360BCA3FF543F30E509541FFEE493B6
:10005F00A360010ECF54C025E060A840B8E493A37D
:10006F00FAE493A3F8E493A3C8C582C8CAC583CAA8
:10007F00F0A3C8C582C8CAC583CADFE9DEE780BE60
:0100DE000021
:00000001FF
